{
  "contractName": "ChainDoctorRemittance",
  "abi": [
    {
      "constant": false,
      "inputs": [
        {
          "name": "onOff",
          "type": "bool"
        },
        {
          "name": "_appointmentValueInWei",
          "type": "uint256"
        }
      ],
      "name": "runSwitch",
      "outputs": [
        {
          "name": "sucess",
          "type": "bool"
        }
      ],
      "payable": false,
      "stateMutability": "nonpayable",
      "type": "function"
    },
    {
      "constant": false,
      "inputs": [
        {
          "name": "doctorAddress",
          "type": "address"
        },
        {
          "name": "_appointmentValueInWei",
          "type": "uint256"
        }
      ],
      "name": "createNewChainDoctorRemittanceProcess",
      "outputs": [
        {
          "name": "success",
          "type": "bool"
        }
      ],
      "payable": true,
      "stateMutability": "payable",
      "type": "function"
    },
    {
      "constant": false,
      "inputs": [],
      "name": "releaseRemittance",
      "outputs": [
        {
          "name": "success",
          "type": "bool"
        }
      ],
      "payable": false,
      "stateMutability": "nonpayable",
      "type": "function"
    },
    {
      "constant": true,
      "inputs": [
        {
          "name": "",
          "type": "bytes32"
        }
      ],
      "name": "owner",
      "outputs": [
        {
          "name": "",
          "type": "address"
        }
      ],
      "payable": false,
      "stateMutability": "view",
      "type": "function"
    },
    {
      "constant": true,
      "inputs": [
        {
          "name": "",
          "type": "bytes32"
        }
      ],
      "name": "QRcodesMapping",
      "outputs": [
        {
          "name": "",
          "type": "bool"
        }
      ],
      "payable": false,
      "stateMutability": "view",
      "type": "function"
    },
    {
      "constant": true,
      "inputs": [],
      "name": "deadlineInSeconds",
      "outputs": [
        {
          "name": "",
          "type": "uint256"
        }
      ],
      "payable": false,
      "stateMutability": "view",
      "type": "function"
    },
    {
      "constant": false,
      "inputs": [
        {
          "name": "newOwner",
          "type": "address"
        }
      ],
      "name": "changeOwner",
      "outputs": [
        {
          "name": "success",
          "type": "bool"
        },
        {
          "name": "accountBalance",
          "type": "uint256"
        },
        {
          "name": "appointmentValueInWei",
          "type": "uint256"
        }
      ],
      "payable": false,
      "stateMutability": "nonpayable",
      "type": "function"
    },
    {
      "constant": false,
      "inputs": [
        {
          "name": "beneficiary",
          "type": "address"
        },
        {
          "name": "qrcode",
          "type": "bytes32"
        }
      ],
      "name": "killMe",
      "outputs": [
        {
          "name": "success",
          "type": "bool"
        }
      ],
      "payable": false,
      "stateMutability": "nonpayable",
      "type": "function"
    },
    {
      "inputs": [
        {
          "name": "",
          "type": "address"
        },
        {
          "name": "_deadlineInSeconds",
          "type": "uint256"
        }
      ],
      "payable": false,
      "stateMutability": "view",
      "type": "function",
      "constant": true,
      "name": "ChainDoctorRemittanceMapping",
      "outputs": [
        {
          "name": "remittanceBallance",
          "type": "uint256"
        },
        {
          "name": "accountBalance",
          "type": "uint256"
        },
        {
          "name": "appointmentValueInWei",
          "type": "uint256"
        }
      ]
    },
    {
      "payable": false,
      "stateMutability": "view",
      "type": "function",
      "constant": true,
      "inputs": [],
      "name": "running",
      "outputs": [
        {
          "name": "",
          "type": "bool"
        }
      ]
    },
    {
      "anonymous": false,
      "inputs": [
        {
          "indexed": false,
          "name": "beneficiary",
          "type": "address"
        },
        {
          "indexed": false,
          "name": "qrcode",
          "type": "bytes32"
        },
        {
          "indexed": false,
          "name": "amountReceived",
          "type": "uint256"
        }
      ],
      "name": "payDoctor",
      "type": "function",
      "constant": false,
      "outputs": [
        {
          "name": "success",
          "type": "bool"
        }
      ],
      "payable": false,
      "stateMutability": "nonpayable"
    },
    {
      "anonymous": false,
      "inputs": [
        {
          "indexed": false,
          "name": "_owner",
          "type": "address"
        },
        {
          "indexed": false,
          "name": "_deadlineInSeconds",
          "type": "uint256"
        }
      ],
      "name": "LogTransferred",
      "type": "constructor",
      "payable": false,
      "stateMutability": "nonpayable"
    },
    {
      "anonymous": false,
      "inputs": [
        {
          "indexed": false,
          "name": "beneficiary",
          "type": "address"
        },
        {
          "indexed": false,
          "name": "qrcode",
          "type": "bytes32"
        }
      ],
      "name": "LogDoctorPaid",
      "type": "fallback",
      "payable": false,
      "stateMutability": "nonpayable"
    },
    {
      "anonymous": false,
      "inputs": [
        {
          "indexed": false,
          "name": "sender",
          "type": "address"
        },
        {
          "indexed": false,
          "name": "beneficiary",
          "type": "address"
        },
        {
          "indexed": false,
          "name": "amountReceived",
          "type": "uint256"
        }
      ],
      "name": "LogRemittanceProcessStarted",
      "type": "event"
    },
    {
      "anonymous": false,
      "inputs": [
        {
          "indexed": false,
          "name": "beneficiary",
          "type": "address"
        },
        {
          "indexed": false,
          "name": "amount",
          "type": "uint256"
        }
      ],
      "name": "LogTransferred",
      "type": "event"
    },
    {
      "anonymous": false,
      "inputs": [
        {
          "indexed": false,
          "name": "beneficiary",
          "type": "address"
        },
        {
          "indexed": false,
          "name": "qrcode",
          "type": "bytes32"
        }
      ],
      "name": "LogDoctorPaid",
      "type": "event"
    },
    {
      "anonymous": false,
      "inputs": [
        {
          "indexed": false,
          "name": "sender",
          "type": "address"
        },
        {
          "indexed": false,
          "name": "switchSetting",
          "type": "bool"
        }
      ],
      "name": "LogRunSwitch",
      "type": "event"
    },
    {
      "anonymous": false,
      "inputs": [
        {
          "indexed": false,
          "name": "sender",
          "type": "address"
        },
        {
          "indexed": false,
          "name": "oldOwner",
          "type": "address"
        },
        {
          "indexed": false,
          "name": "newOwner",
          "type": "address"
        }
      ],
      "name": "LogNewOwner",
      "type": "event"
    }
  ],
  "bytecode": "0x6060604052341561000f57600080fd5b604051604080610f7483398101604052808051906020019091908051906020019091905050336000806101000a81548173ffffffffffffffffffffffffffffffffffffffff021916908373ffffffffffffffffffffffffffffffffffffffff1602179055506001600060146101000a81548160ff02191690831515021790555081600160006101000a81548173ffffffffffffffffffffffffffffffffffffffff021916908373ffffffffffffffffffffffffffffffffffffffff160217905550806003819055505050610e8c806100e86000396000f3006060604052600436106100af576000357c0100000000000000000000000000000000000000000000000000000000900463ffffffff1680632dd97058146100bc578063419e70ed146100f95780637b69df7f146101485780638da5cb5b14610175578063929d0860146101ca578063a6e6bda614610209578063a6f9dae114610232578063b603cd8014610283578063d7cb5eb6146102b0578063d85bd5261461030b578063ef076b1814610338575b34156100ba57600080fd5b005b34156100c757600080fd5b6100df60048080351515906020019091905050610396565b604051808215151515815260200191505060405180910390f35b61012e600480803573ffffffffffffffffffffffffffffffffffffffff16906020019091908035906020019091905050610485565b604051808215151515815260200191505060405180910390f35b341561015357600080fd5b61015b6106e4565b604051808215151515815260200191505060405180910390f35b341561018057600080fd5b610188610878565b604051808273ffffffffffffffffffffffffffffffffffffffff1673ffffffffffffffffffffffffffffffffffffffff16815260200191505060405180910390f35b34156101d557600080fd5b6101ef60048080356000191690602001909190505061089e565b604051808215151515815260200191505060405180910390f35b341561021457600080fd5b61021c6108be565b6040518082815260200191505060405180910390f35b341561023d57600080fd5b610269600480803573ffffffffffffffffffffffffffffffffffffffff169060200190919050506108c4565b604051808215151515815260200191505060405180910390f35b341561028e57600080fd5b610296610a7b565b604051808215151515815260200191505060405180910390f35b34156102bb57600080fd5b6102e7600480803573ffffffffffffffffffffffffffffffffffffffff16906020019091905050610b3f565b60405180848152602001838152602001828152602001935050505060405180910390f35b341561031657600080fd5b61031e610b69565b604051808215151515815260200191505060405180910390f35b341561034357600080fd5b61037c600480803573ffffffffffffffffffffffffffffffffffffffff1690602001909190803560001916906020019091905050610b7c565b604051808215151515815260200191505060405180910390f35b60008060009054906101000a900473ffffffffffffffffffffffffffffffffffffffff1673ffffffffffffffffffffffffffffffffffffffff163373ffffffffffffffffffffffffffffffffffffffff161415156103f357600080fd5b81600060146101000a81548160ff0219169083151502179055507fe149139e745b87d23672d6d1bd3f9160008dc717a946188ef8c5155e4ee6b8453383604051808373ffffffffffffffffffffffffffffffffffffffff1673ffffffffffffffffffffffffffffffffffffffff168152602001821515151581526020019250505060405180910390a160019050919050565b600061048f610e3e565b60008473ffffffffffffffffffffffffffffffffffffffff161115156104b457600080fd5b6000341115156104c357600080fd5b6000600460008673ffffffffffffffffffffffffffffffffffffffff1673ffffffffffffffffffffffffffffffffffffffff1681526020019081526020016000206000015414151561051457600080fd5b6000600460008673ffffffffffffffffffffffffffffffffffffffff1673ffffffffffffffffffffffffffffffffffffffff1681526020019081526020016000206001015414151561056557600080fd5b600160009054906101000a900473ffffffffffffffffffffffffffffffffffffffff1673ffffffffffffffffffffffffffffffffffffffff163373ffffffffffffffffffffffffffffffffffffffff161415156105c157600080fd5b348160200181815250508281604001818152505080600460008673ffffffffffffffffffffffffffffffffffffffff1673ffffffffffffffffffffffffffffffffffffffff1681526020019081526020016000206000820151816000015560208201518160010155604082015181600201559050507fb1514100b13c1ab8a0c47769aa864a608db7a0534fd06e020f984deebc3f2f5833858360000151604051808473ffffffffffffffffffffffffffffffffffffffff1673ffffffffffffffffffffffffffffffffffffffff1681526020018373ffffffffffffffffffffffffffffffffffffffff1673ffffffffffffffffffffffffffffffffffffffff168152602001828152602001935050505060405180910390a1600191505092915050565b6000806000600460003373ffffffffffffffffffffffffffffffffffffffff1673ffffffffffffffffffffffffffffffffffffffff1681526020019081526020016000206000015411151561073857600080fd5b600460003373ffffffffffffffffffffffffffffffffffffffff1673ffffffffffffffffffffffffffffffffffffffff1681526020019081526020016000206000015490506000600460003373ffffffffffffffffffffffffffffffffffffffff1673ffffffffffffffffffffffffffffffffffffffff168152602001908152602001600020600001819055503373ffffffffffffffffffffffffffffffffffffffff166108fc829081150290604051600060405180830381858888f19350505050151561080557600080fd5b7f4909723ded78621fa370c17d36d55ee27aad56a8e80a6d2d429c0b93c65464933382604051808373ffffffffffffffffffffffffffffffffffffffff1673ffffffffffffffffffffffffffffffffffffffff1681526020018281526020019250505060405180910390a1600191505090565b600160009054906101000a900473ffffffffffffffffffffffffffffffffffffffff1681565b60026020528060005260406000206000915054906101000a900460ff1681565b60035481565b60008060009054906101000a900473ffffffffffffffffffffffffffffffffffffffff1673ffffffffffffffffffffffffffffffffffffffff163373ffffffffffffffffffffffffffffffffffffffff1614151561092157600080fd5b60008273ffffffffffffffffffffffffffffffffffffffff1611151561094657600080fd5b7f95a4124b32fadd40e6e63088992a62e3505e61d1683b783d03e575d7c1dfb967336000809054906101000a900473ffffffffffffffffffffffffffffffffffffffff1684604051808473ffffffffffffffffffffffffffffffffffffffff1673ffffffffffffffffffffffffffffffffffffffff1681526020018373ffffffffffffffffffffffffffffffffffffffff1673ffffffffffffffffffffffffffffffffffffffff1681526020018273ffffffffffffffffffffffffffffffffffffffff1673ffffffffffffffffffffffffffffffffffffffff168152602001935050505060405180910390a1816000806101000a81548173ffffffffffffffffffffffffffffffffffffffff021916908373ffffffffffffffffffffffffffffffffffffffff16021790555060019050919050565b600080600160009054906101000a900473ffffffffffffffffffffffffffffffffffffffff1673ffffffffffffffffffffffffffffffffffffffff163373ffffffffffffffffffffffffffffffffffffffff16141515610ada57600080fd5b60035442111515610aea57600080fd5b3073ffffffffffffffffffffffffffffffffffffffff16319050600160009054906101000a900473ffffffffffffffffffffffffffffffffffffffff1673ffffffffffffffffffffffffffffffffffffffff16ff5b60046020528060005260406000206000915090508060000154908060010154908060020154905083565b600060149054906101000a900460ff1681565b6000600160009054906101000a900473ffffffffffffffffffffffffffffffffffffffff1673ffffffffffffffffffffffffffffffffffffffff163373ffffffffffffffffffffffffffffffffffffffff16141515610bda57600080fd5b6000151560026000846000191660001916815260200190815260200160002060009054906101000a900460ff161515141515610c1557600080fd5b6000600460008573ffffffffffffffffffffffffffffffffffffffff1673ffffffffffffffffffffffffffffffffffffffff16815260200190815260200160002060010154111515610c6657600080fd5b600160026000846000191660001916815260200190815260200160002060006101000a81548160ff021916908315150217905550600460008473ffffffffffffffffffffffffffffffffffffffff1673ffffffffffffffffffffffffffffffffffffffff16815260200190815260200160002060020154600460008573ffffffffffffffffffffffffffffffffffffffff1673ffffffffffffffffffffffffffffffffffffffff1681526020019081526020016000206000015401600460008573ffffffffffffffffffffffffffffffffffffffff1673ffffffffffffffffffffffffffffffffffffffff16815260200190815260200160002060000181905550600460008473ffffffffffffffffffffffffffffffffffffffff1673ffffffffffffffffffffffffffffffffffffffff16815260200190815260200160002060020154600460008573ffffffffffffffffffffffffffffffffffffffff1673ffffffffffffffffffffffffffffffffffffffff1681526020019081526020016000206001015403600460008573ffffffffffffffffffffffffffffffffffffffff1673ffffffffffffffffffffffffffffffffffffffff168152602001908152602001600020600101819055506001905092915050565b60606040519081016040528060008152602001600081526020016000815250905600a165627a7a72305820306eba74812f7bd0cdf317d72c509771f05d9808e89e25c66ceb7d5a00197eef0029",
  "source": "pragma solidity ^0.4.18;\n\nimport \"./Stoppable.sol\";\n\n/**\n * @title ChainDoctorRemittance contract. \n * World Virtual Hackathon\n * \n */\ncontract ChainDoctorRemittance is Stoppable {\n    \n    address public owner; //city hall address\n    mapping (bytes32 => bool) public QRcodesMapping; //QR codes that has already being paid. Must be unique\n    \n    uint public deadlineInSeconds;  //remittance max period of time. after that, owner can claim funds\n    \n    //each doctor will be beneficary of a remittance struct.\n    //removed withdraw dealine time to make it simpler - at first, doctor would only withdrawn once a week, but to make \n    //it simpler, I removed it.\n    struct ChainDoctorRemittanceStruct {\n\t    uint remittanceBallance;       //value Doctor will receive from city hall\n\t    uint accountBalance;           //value that city hall deposits to guarantee payment to the doctor\n        uint appointmentValueInWei;    //value of each time doctor sees a patient\n    }\n    \n    // key is beneficiaryAddress who is the doctor to permit withdrawn\n    mapping (address => ChainDoctorRemittanceStruct) public ChainDoctorRemittanceMapping;\n    \n    //Log events\n    event LogRemittanceProcessStarted(address  sender, address  beneficiary, uint amountReceived);\n    event LogTransferred(address beneficiary, uint amount);\n    event LogDoctorPaid(address beneficiary, bytes32 qrcode);\n    \n    //Constructor\n    //_deadlineLimitInSeconds\n    //_owner - city hall address\n    function ChainDoctorRemittance(address _owner , uint _deadlineInSeconds) {\n        owner = _owner;\n        deadlineInSeconds = _deadlineInSeconds;\n    }\n    \n    //Start a remittance process\n    //for each contract, a new address is necessary - this logic maybe improved in the future\n    //and we may add deadlineInSeconds - 6 months = 16000000 - a 6 months deadline is now + 16000000\n    function createNewChainDoctorRemittanceProcess(address doctorAddress , uint _appointmentValueInWei) \n        public\n        payable  \n        returns(bool success) \n    {\n        //if deadline is greater than the deadlimit, if msg.value is zero,\n        //if doctorAddress address is zero and if password was already used in the past, revert\n        require(doctorAddress > 0);  //must be a valid address\n        require(msg.value > 0);  //must have a positive ammount  to be able to pay doctors\n        require(ChainDoctorRemittanceMapping[doctorAddress].remittanceBallance == 0); //must be new process\n        require(ChainDoctorRemittanceMapping[doctorAddress].accountBalance == 0); //must be new process\n        require(msg.sender == owner); //only owner can create remittance process\n        \n        ChainDoctorRemittanceStruct memory newRemittance;\n        newRemittance.accountBalance = msg.value;  // for each appointment, a defaultAppointmentValueInWei is going to be subtracted from this value.\n        newRemittance.appointmentValueInWei = _appointmentValueInWei;\n        \n        ChainDoctorRemittanceMapping[doctorAddress] = newRemittance;\n\n        LogRemittanceProcessStarted(msg.sender , doctorAddress, newRemittance.remittanceBallance);\n        \n        return true;\n    }\n    \n    function payDoctor(address beneficiary, bytes32 qrcode) \n        public\n        returns(bool success) \n    {\n        require(msg.sender == owner);\n        require(QRcodesMapping[qrcode]==false); //must be unique\n        require(ChainDoctorRemittanceMapping[beneficiary].accountBalance > 0); //must have funds to pay doctor\n        \n        //mark QR code as read and done to avoid paying twice\n        QRcodesMapping[qrcode] = true;\n        \n        //add defaultAppointmentValueInWei to the doctor balance\n        ChainDoctorRemittanceMapping[beneficiary].remittanceBallance = ChainDoctorRemittanceMapping[beneficiary].remittanceBallance + ChainDoctorRemittanceMapping[beneficiary].appointmentValueInWei;\n        ChainDoctorRemittanceMapping[beneficiary].accountBalance = ChainDoctorRemittanceMapping[beneficiary].accountBalance - ChainDoctorRemittanceMapping[beneficiary].appointmentValueInWei;\n        \n        //add log event\n        \n        return true;\n    }\n    \n    //beneficary will call this function to receive ethers\n    function releaseRemittance() \n        public\n        returns(bool success)\n    {\n        //only beneficiary can call this function and it should have funds\n        //and must have a positive balance\n        require(ChainDoctorRemittanceMapping[msg.sender].remittanceBallance > 0);\n        \n        uint amount = ChainDoctorRemittanceMapping[msg.sender].remittanceBallance;\n\n        //msg.sender is the beneficary and it was checked in the first line of this function\n        ChainDoctorRemittanceMapping[msg.sender].remittanceBallance = 0;\n        \n        msg.sender.transfer(amount);\n        \n        LogTransferred(msg.sender, amount);\n        \n        return true;\n    }\n    \n    //kill the contract and return all remain funds to the contract owner\n    //after expire date\n    function killMe() \n        public\n        returns (bool success)\n    {\n        require(msg.sender == owner);\n        require(now > deadlineInSeconds); //now is equal to block.timestamp\n        \n        uint amount = this.balance;\n        \n        selfdestruct(owner);\n        \n        LogTransferred(msg.sender, amount);\n        return true;\n    }\n    \n    function () {\n    }\n}\n",
  "sourcePath": "/home/luiz/worldhackathon/prototype/contracts/ChainDoctorRemittance.sol",
  "compiler": {
    "name": "solc",
    "version": "0.4.18+commit.9cf6e910.Emscripten.clang"
  },
  "schemaVersion": "1.0.1",
  "updatedAt": "2017-12-26T20:12:17.494Z"
}