{
  "contractName": "ChainDoctorHub",
  "abi": [
    {
      "constant": true,
      "inputs": [
        {
          "name": "",
          "type": "address"
        }
      ],
      "name": "chainDoctorRemittanceExists",
      "outputs": [
        {
          "name": "",
          "type": "bool"
        }
      ],
      "payable": false,
      "stateMutability": "view",
      "type": "function"
    },
    {
      "constant": false,
      "inputs": [
        {
          "name": "chainDoctorRemittance",
          "type": "address"
        }
      ],
      "name": "stopChainDoctorRemittance",
      "outputs": [
        {
          "name": "success",
          "type": "bool"
        }
      ],
      "payable": false,
      "stateMutability": "nonpayable",
      "type": "function"
    },
    {
      "constant": false,
      "inputs": [
        {
          "name": "onOff",
          "type": "bool"
        }
      ],
      "name": "runSwitch",
      "outputs": [
        {
          "name": "sucess",
          "type": "bool"
        }
      ],
      "payable": false,
      "stateMutability": "nonpayable",
      "type": "function"
    },
    {
      "constant": true,
      "inputs": [
        {
          "name": "remittanceOWner",
          "type": "address"
        },
        {
          "name": "deadlineInSeconds",
          "type": "uint256"
        }
      ],
      "name": "getChainDoctorRemittanceCount",
      "outputs": [
        {
          "name": "chainDoctorRemittanceCount",
          "type": "uint256"
        }
      ],
      "payable": false,
      "stateMutability": "view",
      "type": "function"
    },
    {
      "anonymous": false,
      "inputs": [
        {
          "indexed": false,
          "name": "chainDoctorRemittance",
          "type": "address"
        },
        {
          "indexed": false,
          "name": "newOwner",
          "type": "address"
        },
        {
          "indexed": false,
          "name": "chainDoctorRemittance",
          "type": "address"
        },
        {
          "indexed": false,
          "name": "value",
          "type": "uint256"
        }
      ],
      "name": "changeChainDoctorRemittanceOwner",
      "type": "function",
      "constant": false,
      "outputs": [
        {
          "name": "success",
          "type": "bool"
        }
      ],
      "payable": false,
      "stateMutability": "nonpayable"
    },
    {
      "anonymous": false,
      "inputs": [
        {
          "indexed": false,
          "name": "chainDoctorRemittance",
          "type": "address"
        },
        {
          "indexed": false,
          "name": "chainDoctorRemittance",
          "type": "address"
        }
      ],
      "name": "startChainDoctorRemittance",
      "type": "function",
      "constant": false,
      "outputs": [
        {
          "name": "success",
          "type": "bool"
        }
      ],
      "payable": false,
      "stateMutability": "nonpayable"
    },
    {
      "anonymous": false,
      "inputs": [
        {
          "indexed": false,
          "name": "sender",
          "type": "address"
        },
        {
          "indexed": false,
          "name": "chainDoctorRemittance",
          "type": "address"
        }
      ],
      "name": "owner",
      "type": "function",
      "constant": true,
      "outputs": [
        {
          "name": "",
          "type": "address"
        }
      ],
      "payable": false,
      "stateMutability": "view"
    },
    {
      "anonymous": false,
      "inputs": [
        {
          "indexed": false,
          "name": "newOwner",
          "type": "address"
        },
        {
          "indexed": false,
          "name": "deadlineInSeconds",
          "type": "uint256"
        },
        {
          "indexed": false,
          "name": "newOwner",
          "type": "address"
        }
      ],
      "name": "changeOwner",
      "type": "function",
      "constant": false,
      "outputs": [
        {
          "name": "success",
          "type": "bool"
        }
      ],
      "payable": false,
      "stateMutability": "nonpayable"
    },
    {
      "anonymous": false,
      "inputs": [
        {
          "indexed": false,
          "name": "",
          "type": "uint256"
        },
        {
          "indexed": false,
          "name": "remittanceOwner",
          "type": "address"
        },
        {
          "indexed": false,
          "name": "chainDoctorRemittance",
          "type": "address"
        },
        {
          "indexed": false,
          "name": "value",
          "type": "uint256"
        }
      ],
      "name": "chainDoctorRemittances",
      "type": "function",
      "constant": true,
      "outputs": [
        {
          "name": "",
          "type": "address"
        }
      ],
      "payable": false,
      "stateMutability": "view"
    },
    {
      "anonymous": false,
      "inputs": [
        {
          "indexed": false,
          "name": "sender",
          "type": "address"
        },
        {
          "indexed": false,
          "name": "chainDoctorRemittance",
          "type": "address"
        }
      ],
      "name": "running",
      "type": "function",
      "constant": true,
      "outputs": [
        {
          "name": "",
          "type": "bool"
        }
      ],
      "payable": false,
      "stateMutability": "view"
    },
    {
      "anonymous": false,
      "inputs": [
        {
          "indexed": false,
          "name": "remittanceOWner",
          "type": "address"
        },
        {
          "indexed": false,
          "name": "deadlineInSeconds",
          "type": "uint256"
        }
      ],
      "name": "createChainDoctorRemittance",
      "type": "function",
      "constant": false,
      "outputs": [
        {
          "name": "chainDoctorRemittance",
          "type": "address"
        }
      ],
      "payable": false,
      "stateMutability": "nonpayable"
    },
    {
      "anonymous": false,
      "inputs": [
        {
          "indexed": false,
          "name": "owner",
          "type": "address"
        },
        {
          "indexed": false,
          "name": "remittanceOwner",
          "type": "address"
        },
        {
          "indexed": false,
          "name": "chainDoctorRemittance",
          "type": "address"
        },
        {
          "indexed": false,
          "name": "value",
          "type": "uint256"
        }
      ],
      "name": "LogNewChainDoctorRemittance",
      "type": "event"
    },
    {
      "anonymous": false,
      "inputs": [
        {
          "indexed": false,
          "name": "sender",
          "type": "address"
        },
        {
          "indexed": false,
          "name": "chainDoctorRemittance",
          "type": "address"
        }
      ],
      "name": "LogChainDoctorRemittanceStopped",
      "type": "event"
    },
    {
      "anonymous": false,
      "inputs": [
        {
          "indexed": false,
          "name": "sender",
          "type": "address"
        },
        {
          "indexed": false,
          "name": "chainDoctorRemittance",
          "type": "address"
        },
        {
          "indexed": false,
          "name": "newOwner",
          "type": "address"
        }
      ],
      "name": "LogChainDoctorRemittanceStarted",
      "type": "event"
    },
    {
      "anonymous": false,
      "inputs": [
        {
          "indexed": false,
          "name": "sender",
          "type": "address"
        },
        {
          "indexed": false,
          "name": "chainDoctorRemittance",
          "type": "address"
        },
        {
          "indexed": false,
          "name": "newOwner",
          "type": "address"
        }
      ],
      "name": "LogChainDoctorRemittanceNewOwner",
      "type": "event"
    },
    {
      "anonymous": false,
      "inputs": [
        {
          "indexed": false,
          "name": "sender",
          "type": "address"
        },
        {
          "indexed": false,
          "name": "switchSetting",
          "type": "bool"
        }
      ],
      "name": "LogRunSwitch",
      "type": "event"
    },
    {
      "anonymous": false,
      "inputs": [
        {
          "indexed": false,
          "name": "sender",
          "type": "address"
        },
        {
          "indexed": false,
          "name": "oldOwner",
          "type": "address"
        },
        {
          "indexed": false,
          "name": "newOwner",
          "type": "address"
        }
      ],
      "name": "LogNewOwner",
      "type": "event"
    }
  ],
  "bytecode": "0x6060604052336000806101000a81548173ffffffffffffffffffffffffffffffffffffffff021916908373ffffffffffffffffffffffffffffffffffffffff1602179055506001600060146101000a81548160ff021916908315150217905550611fbd8061006e6000396000f3006060604052600436106100af576000357c0100000000000000000000000000000000000000000000000000000000900463ffffffff16806307d6bc97146100b4578063265bddb3146101055780632dd97058146101565780633b083c8c146101935780634ef0e592146101bc5780635bde05661461022c5780638da5cb5b1461027d578063a6f9dae1146102d2578063bda4586114610323578063d85bd52614610386578063dc8ef671146103b3575b600080fd5b34156100bf57600080fd5b6100eb600480803573ffffffffffffffffffffffffffffffffffffffff16906020019091905050610435565b604051808215151515815260200191505060405180910390f35b341561011057600080fd5b61013c600480803573ffffffffffffffffffffffffffffffffffffffff16906020019091905050610455565b604051808215151515815260200191505060405180910390f35b341561016157600080fd5b6101796004808035151590602001909190505061064c565b604051808215151515815260200191505060405180910390f35b341561019e57600080fd5b6101a661073b565b6040518082815260200191505060405180910390f35b34156101c757600080fd5b610212600480803573ffffffffffffffffffffffffffffffffffffffff1690602001909190803573ffffffffffffffffffffffffffffffffffffffff16906020019091905050610748565b604051808215151515815260200191505060405180910390f35b341561023757600080fd5b610263600480803573ffffffffffffffffffffffffffffffffffffffff1690602001909190505061099c565b604051808215151515815260200191505060405180910390f35b341561028857600080fd5b610290610b94565b604051808273ffffffffffffffffffffffffffffffffffffffff1673ffffffffffffffffffffffffffffffffffffffff16815260200191505060405180910390f35b34156102dd57600080fd5b610309600480803573ffffffffffffffffffffffffffffffffffffffff16906020019091905050610bb9565b604051808215151515815260200191505060405180910390f35b341561032e57600080fd5b6103446004808035906020019091905050610d70565b604051808273ffffffffffffffffffffffffffffffffffffffff1673ffffffffffffffffffffffffffffffffffffffff16815260200191505060405180910390f35b341561039157600080fd5b610399610daf565b604051808215151515815260200191505060405180910390f35b34156103be57600080fd5b6103f3600480803573ffffffffffffffffffffffffffffffffffffffff16906020019091908035906020019091905050610dc2565b604051808273ffffffffffffffffffffffffffffffffffffffff1673ffffffffffffffffffffffffffffffffffffffff16815260200191505060405180910390f35b60026020528060005260406000206000915054906101000a900460ff1681565b6000806000809054906101000a900473ffffffffffffffffffffffffffffffffffffffff1673ffffffffffffffffffffffffffffffffffffffff163373ffffffffffffffffffffffffffffffffffffffff161415156104b357600080fd5b8260011515600260008373ffffffffffffffffffffffffffffffffffffffff1673ffffffffffffffffffffffffffffffffffffffff16815260200190815260200160002060009054906101000a900460ff16151514151561051357600080fd5b8391507f4a711acf7228a1188683dd1e255c4110d15b42132a1c0da0da4e873e22c6c07a3385604051808373ffffffffffffffffffffffffffffffffffffffff1673ffffffffffffffffffffffffffffffffffffffff1681526020018273ffffffffffffffffffffffffffffffffffffffff1673ffffffffffffffffffffffffffffffffffffffff1681526020019250505060405180910390a18173ffffffffffffffffffffffffffffffffffffffff16632dd97058600080604051602001526040518263ffffffff167c01000000000000000000000000000000000000000000000000000000000281526004018082151515158152602001915050602060405180830381600087803b151561062857600080fd5b6102c65a03f1151561063957600080fd5b5050506040518051905092505050919050565b60008060009054906101000a900473ffffffffffffffffffffffffffffffffffffffff1673ffffffffffffffffffffffffffffffffffffffff163373ffffffffffffffffffffffffffffffffffffffff161415156106a957600080fd5b81600060146101000a81548160ff0219169083151502179055507fe149139e745b87d23672d6d1bd3f9160008dc717a946188ef8c5155e4ee6b8453383604051808373ffffffffffffffffffffffffffffffffffffffff1673ffffffffffffffffffffffffffffffffffffffff168152602001821515151581526020019250505060405180910390a160019050919050565b6000600180549050905090565b6000806000809054906101000a900473ffffffffffffffffffffffffffffffffffffffff1673ffffffffffffffffffffffffffffffffffffffff163373ffffffffffffffffffffffffffffffffffffffff161415156107a657600080fd5b8360011515600260008373ffffffffffffffffffffffffffffffffffffffff1673ffffffffffffffffffffffffffffffffffffffff16815260200190815260200160002060009054906101000a900460ff16151514151561080657600080fd5b8491507fcc47a3a73b56780d2ccb47b07da50edc3d2149931de5ebc620c6522e23e0a1e2338686604051808473ffffffffffffffffffffffffffffffffffffffff1673ffffffffffffffffffffffffffffffffffffffff1681526020018373ffffffffffffffffffffffffffffffffffffffff1673ffffffffffffffffffffffffffffffffffffffff1681526020018273ffffffffffffffffffffffffffffffffffffffff1673ffffffffffffffffffffffffffffffffffffffff168152602001935050505060405180910390a18173ffffffffffffffffffffffffffffffffffffffff1663a6f9dae1856000604051602001526040518263ffffffff167c0100000000000000000000000000000000000000000000000000000000028152600401808273ffffffffffffffffffffffffffffffffffffffff1673ffffffffffffffffffffffffffffffffffffffff168152602001915050602060405180830381600087803b151561097757600080fd5b6102c65a03f1151561098857600080fd5b505050604051805190509250505092915050565b6000806000809054906101000a900473ffffffffffffffffffffffffffffffffffffffff1673ffffffffffffffffffffffffffffffffffffffff163373ffffffffffffffffffffffffffffffffffffffff161415156109fa57600080fd5b8260011515600260008373ffffffffffffffffffffffffffffffffffffffff1673ffffffffffffffffffffffffffffffffffffffff16815260200190815260200160002060009054906101000a900460ff161515141515610a5a57600080fd5b8391507f9570bbc751b516344a7b887cbab987c5729aa424b19b6e1770d2b7a367ada62b3385604051808373ffffffffffffffffffffffffffffffffffffffff1673ffffffffffffffffffffffffffffffffffffffff1681526020018273ffffffffffffffffffffffffffffffffffffffff1673ffffffffffffffffffffffffffffffffffffffff1681526020019250505060405180910390a18173ffffffffffffffffffffffffffffffffffffffff16632dd9705860016000604051602001526040518263ffffffff167c01000000000000000000000000000000000000000000000000000000000281526004018082151515158152602001915050602060405180830381600087803b1515610b7057600080fd5b6102c65a03f11515610b8157600080fd5b5050506040518051905092505050919050565b6000809054906101000a900473ffffffffffffffffffffffffffffffffffffffff1681565b60008060009054906101000a900473ffffffffffffffffffffffffffffffffffffffff1673ffffffffffffffffffffffffffffffffffffffff163373ffffffffffffffffffffffffffffffffffffffff16141515610c1657600080fd5b60008273ffffffffffffffffffffffffffffffffffffffff16111515610c3b57600080fd5b7f95a4124b32fadd40e6e63088992a62e3505e61d1683b783d03e575d7c1dfb967336000809054906101000a900473ffffffffffffffffffffffffffffffffffffffff1684604051808473ffffffffffffffffffffffffffffffffffffffff1673ffffffffffffffffffffffffffffffffffffffff1681526020018373ffffffffffffffffffffffffffffffffffffffff1673ffffffffffffffffffffffffffffffffffffffff1681526020018273ffffffffffffffffffffffffffffffffffffffff1673ffffffffffffffffffffffffffffffffffffffff168152602001935050505060405180910390a1816000806101000a81548173ffffffffffffffffffffffffffffffffffffffff021916908373ffffffffffffffffffffffffffffffffffffffff16021790555060019050919050565b600181815481101515610d7f57fe5b90600052602060002090016000915054906101000a900473ffffffffffffffffffffffffffffffffffffffff1681565b600060149054906101000a900460ff1681565b6000808383610dcf610fbc565b808373ffffffffffffffffffffffffffffffffffffffff1673ffffffffffffffffffffffffffffffffffffffff16815260200182815260200192505050604051809103906000f0801515610e2257600080fd5b905060018054806001018281610e389190610fcc565b9160005260206000209001600083909190916101000a81548173ffffffffffffffffffffffffffffffffffffffff021916908373ffffffffffffffffffffffffffffffffffffffff160217905550506001600260008373ffffffffffffffffffffffffffffffffffffffff1673ffffffffffffffffffffffffffffffffffffffff16815260200190815260200160002060006101000a81548160ff0219169083151502179055507fa2ae0d8328c8f2746cfd961a70664daed10aaf59347c9e68383ba736de87913033858386604051808573ffffffffffffffffffffffffffffffffffffffff1673ffffffffffffffffffffffffffffffffffffffff1681526020018473ffffffffffffffffffffffffffffffffffffffff1673ffffffffffffffffffffffffffffffffffffffff1681526020018373ffffffffffffffffffffffffffffffffffffffff1673ffffffffffffffffffffffffffffffffffffffff16815260200182815260200194505050505060405180910390a18091505092915050565b604051610f748061101e83390190565b815481835581811511610ff357818360005260206000209182019101610ff29190610ff8565b5b505050565b61101a91905b80821115611016576000816000905550600101610ffe565b5090565b9056006060604052341561000f57600080fd5b604051604080610f7483398101604052808051906020019091908051906020019091905050336000806101000a81548173ffffffffffffffffffffffffffffffffffffffff021916908373ffffffffffffffffffffffffffffffffffffffff1602179055506001600060146101000a81548160ff02191690831515021790555081600160006101000a81548173ffffffffffffffffffffffffffffffffffffffff021916908373ffffffffffffffffffffffffffffffffffffffff160217905550806003819055505050610e8c806100e86000396000f3006060604052600436106100af576000357c0100000000000000000000000000000000000000000000000000000000900463ffffffff1680632dd97058146100bc578063419e70ed146100f95780637b69df7f146101485780638da5cb5b14610175578063929d0860146101ca578063a6e6bda614610209578063a6f9dae114610232578063b603cd8014610283578063d7cb5eb6146102b0578063d85bd5261461030b578063ef076b1814610338575b34156100ba57600080fd5b005b34156100c757600080fd5b6100df60048080351515906020019091905050610396565b604051808215151515815260200191505060405180910390f35b61012e600480803573ffffffffffffffffffffffffffffffffffffffff16906020019091908035906020019091905050610485565b604051808215151515815260200191505060405180910390f35b341561015357600080fd5b61015b6106e4565b604051808215151515815260200191505060405180910390f35b341561018057600080fd5b610188610878565b604051808273ffffffffffffffffffffffffffffffffffffffff1673ffffffffffffffffffffffffffffffffffffffff16815260200191505060405180910390f35b34156101d557600080fd5b6101ef60048080356000191690602001909190505061089e565b604051808215151515815260200191505060405180910390f35b341561021457600080fd5b61021c6108be565b6040518082815260200191505060405180910390f35b341561023d57600080fd5b610269600480803573ffffffffffffffffffffffffffffffffffffffff169060200190919050506108c4565b604051808215151515815260200191505060405180910390f35b341561028e57600080fd5b610296610a7b565b604051808215151515815260200191505060405180910390f35b34156102bb57600080fd5b6102e7600480803573ffffffffffffffffffffffffffffffffffffffff16906020019091905050610b3f565b60405180848152602001838152602001828152602001935050505060405180910390f35b341561031657600080fd5b61031e610b69565b604051808215151515815260200191505060405180910390f35b341561034357600080fd5b61037c600480803573ffffffffffffffffffffffffffffffffffffffff1690602001909190803560001916906020019091905050610b7c565b604051808215151515815260200191505060405180910390f35b60008060009054906101000a900473ffffffffffffffffffffffffffffffffffffffff1673ffffffffffffffffffffffffffffffffffffffff163373ffffffffffffffffffffffffffffffffffffffff161415156103f357600080fd5b81600060146101000a81548160ff0219169083151502179055507fe149139e745b87d23672d6d1bd3f9160008dc717a946188ef8c5155e4ee6b8453383604051808373ffffffffffffffffffffffffffffffffffffffff1673ffffffffffffffffffffffffffffffffffffffff168152602001821515151581526020019250505060405180910390a160019050919050565b600061048f610e3e565b60008473ffffffffffffffffffffffffffffffffffffffff161115156104b457600080fd5b6000341115156104c357600080fd5b6000600460008673ffffffffffffffffffffffffffffffffffffffff1673ffffffffffffffffffffffffffffffffffffffff1681526020019081526020016000206000015414151561051457600080fd5b6000600460008673ffffffffffffffffffffffffffffffffffffffff1673ffffffffffffffffffffffffffffffffffffffff1681526020019081526020016000206001015414151561056557600080fd5b600160009054906101000a900473ffffffffffffffffffffffffffffffffffffffff1673ffffffffffffffffffffffffffffffffffffffff163373ffffffffffffffffffffffffffffffffffffffff161415156105c157600080fd5b348160200181815250508281604001818152505080600460008673ffffffffffffffffffffffffffffffffffffffff1673ffffffffffffffffffffffffffffffffffffffff1681526020019081526020016000206000820151816000015560208201518160010155604082015181600201559050507fb1514100b13c1ab8a0c47769aa864a608db7a0534fd06e020f984deebc3f2f5833858360000151604051808473ffffffffffffffffffffffffffffffffffffffff1673ffffffffffffffffffffffffffffffffffffffff1681526020018373ffffffffffffffffffffffffffffffffffffffff1673ffffffffffffffffffffffffffffffffffffffff168152602001828152602001935050505060405180910390a1600191505092915050565b6000806000600460003373ffffffffffffffffffffffffffffffffffffffff1673ffffffffffffffffffffffffffffffffffffffff1681526020019081526020016000206000015411151561073857600080fd5b600460003373ffffffffffffffffffffffffffffffffffffffff1673ffffffffffffffffffffffffffffffffffffffff1681526020019081526020016000206000015490506000600460003373ffffffffffffffffffffffffffffffffffffffff1673ffffffffffffffffffffffffffffffffffffffff168152602001908152602001600020600001819055503373ffffffffffffffffffffffffffffffffffffffff166108fc829081150290604051600060405180830381858888f19350505050151561080557600080fd5b7f4909723ded78621fa370c17d36d55ee27aad56a8e80a6d2d429c0b93c65464933382604051808373ffffffffffffffffffffffffffffffffffffffff1673ffffffffffffffffffffffffffffffffffffffff1681526020018281526020019250505060405180910390a1600191505090565b600160009054906101000a900473ffffffffffffffffffffffffffffffffffffffff1681565b60026020528060005260406000206000915054906101000a900460ff1681565b60035481565b60008060009054906101000a900473ffffffffffffffffffffffffffffffffffffffff1673ffffffffffffffffffffffffffffffffffffffff163373ffffffffffffffffffffffffffffffffffffffff1614151561092157600080fd5b60008273ffffffffffffffffffffffffffffffffffffffff1611151561094657600080fd5b7f95a4124b32fadd40e6e63088992a62e3505e61d1683b783d03e575d7c1dfb967336000809054906101000a900473ffffffffffffffffffffffffffffffffffffffff1684604051808473ffffffffffffffffffffffffffffffffffffffff1673ffffffffffffffffffffffffffffffffffffffff1681526020018373ffffffffffffffffffffffffffffffffffffffff1673ffffffffffffffffffffffffffffffffffffffff1681526020018273ffffffffffffffffffffffffffffffffffffffff1673ffffffffffffffffffffffffffffffffffffffff168152602001935050505060405180910390a1816000806101000a81548173ffffffffffffffffffffffffffffffffffffffff021916908373ffffffffffffffffffffffffffffffffffffffff16021790555060019050919050565b600080600160009054906101000a900473ffffffffffffffffffffffffffffffffffffffff1673ffffffffffffffffffffffffffffffffffffffff163373ffffffffffffffffffffffffffffffffffffffff16141515610ada57600080fd5b60035442111515610aea57600080fd5b3073ffffffffffffffffffffffffffffffffffffffff16319050600160009054906101000a900473ffffffffffffffffffffffffffffffffffffffff1673ffffffffffffffffffffffffffffffffffffffff16ff5b60046020528060005260406000206000915090508060000154908060010154908060020154905083565b600060149054906101000a900460ff1681565b6000600160009054906101000a900473ffffffffffffffffffffffffffffffffffffffff1673ffffffffffffffffffffffffffffffffffffffff163373ffffffffffffffffffffffffffffffffffffffff16141515610bda57600080fd5b6000151560026000846000191660001916815260200190815260200160002060009054906101000a900460ff161515141515610c1557600080fd5b6000600460008573ffffffffffffffffffffffffffffffffffffffff1673ffffffffffffffffffffffffffffffffffffffff16815260200190815260200160002060010154111515610c6657600080fd5b600160026000846000191660001916815260200190815260200160002060006101000a81548160ff021916908315150217905550600460008473ffffffffffffffffffffffffffffffffffffffff1673ffffffffffffffffffffffffffffffffffffffff16815260200190815260200160002060020154600460008573ffffffffffffffffffffffffffffffffffffffff1673ffffffffffffffffffffffffffffffffffffffff1681526020019081526020016000206000015401600460008573ffffffffffffffffffffffffffffffffffffffff1673ffffffffffffffffffffffffffffffffffffffff16815260200190815260200160002060000181905550600460008473ffffffffffffffffffffffffffffffffffffffff1673ffffffffffffffffffffffffffffffffffffffff16815260200190815260200160002060020154600460008573ffffffffffffffffffffffffffffffffffffffff1673ffffffffffffffffffffffffffffffffffffffff1681526020019081526020016000206001015403600460008573ffffffffffffffffffffffffffffffffffffffff1673ffffffffffffffffffffffffffffffffffffffff168152602001908152602001600020600101819055506001905092915050565b60606040519081016040528060008152602001600081526020016000815250905600a165627a7a72305820306eba74812f7bd0cdf317d72c509771f05d9808e89e25c66ceb7d5a00197eef0029a165627a7a72305820419e19d8df6cac21799d6ebbfeaa5d84bfdae6aa514fa98c2d5bca4da65c6dd20029",
  "source": "pragma solidity ^0.4.18;\n\nimport \"./ChainDoctorRemittance.sol\";\nimport \"./Stoppable.sol\";\n\ncontract ChainDoctorHub is Stoppable{\n    \n    address[] public chainDoctorRemittances;\n    mapping(address => bool) public chainDoctorRemittanceExists;\n    \n    event LogNewChainDoctorRemittance(address owner, address remittanceOwner, address chainDoctorRemittance, uint value);\n    event LogChainDoctorRemittanceStopped(address sender, address chainDoctorRemittance);\n    event LogChainDoctorRemittanceStarted(address sender, address chainDoctorRemittance);\n    event LogChainDoctorRemittanceNewOwner(address sender, address chainDoctorRemittance, address newOwner);\n    \n    modifier onlyIfChainDoctorRemittance(address chainDoctorRemittance) {\n        require(chainDoctorRemittanceExists[chainDoctorRemittance] == true);\n        _;\n    }\n\n    function getChainDoctorRemittanceCount()\n        public\n        constant\n        returns(uint chainDoctorRemittanceCount)\n    {\n        return chainDoctorRemittances.length;\n    }\n    \n    function createChainDoctorRemittance(address remittanceOWner, uint deadlineInSeconds)\n        public\n        returns(address chainDoctorRemittance)\n    {\n        ChainDoctorRemittance trustedChainDoctorRemittance;  //trusted because we know the developer\n\n        trustedChainDoctorRemittance = new ChainDoctorRemittance( remittanceOWner, deadlineInSeconds);\n        chainDoctorRemittances.push(trustedChainDoctorRemittance);\n        chainDoctorRemittanceExists[trustedChainDoctorRemittance] = true;\n\n        //Hub contract is the owner and admin is who sent the msg\n        LogNewChainDoctorRemittance(msg.sender, remittanceOWner, trustedChainDoctorRemittance, deadlineInSeconds);\n        return trustedChainDoctorRemittance;\n    }\n    \n    function stopChainDoctorRemittance(address chainDoctorRemittance)\n        onlyOwner\n        onlyIfChainDoctorRemittance(chainDoctorRemittance)\n        returns(bool success) \n    {\n        ChainDoctorRemittance trustedChainDoctorRemittance = ChainDoctorRemittance(chainDoctorRemittance);\n        LogChainDoctorRemittanceStopped(msg.sender, chainDoctorRemittance);\n        return (trustedChainDoctorRemittance.runSwitch(false));\n    }\n    \n    function startChainDoctorRemittance(address chainDoctorRemittance)\n        onlyOwner\n        onlyIfChainDoctorRemittance(chainDoctorRemittance)\n        returns(bool success)\n    {\n        ChainDoctorRemittance trustedChainDoctorRemittance = ChainDoctorRemittance(chainDoctorRemittance);\n        LogChainDoctorRemittanceStarted(msg.sender, chainDoctorRemittance);\n        return (trustedChainDoctorRemittance.runSwitch(true));\n    }\n    \n    function changeChainDoctorRemittanceOwner(address chainDoctorRemittance, address newOwner)\n        onlyOwner\n        onlyIfChainDoctorRemittance(chainDoctorRemittance)\n        returns(bool success)\n    {\n        ChainDoctorRemittance trustedChainDoctorRemittance = ChainDoctorRemittance(chainDoctorRemittance);\n        LogChainDoctorRemittanceNewOwner(msg.sender, chainDoctorRemittance , newOwner);\n        return (trustedChainDoctorRemittance.changeOwner(newOwner));\n    }\n    \n    \n}",
  "sourcePath": "/home/luiz/worldhackathon/prototype/contracts/ChainDoctorRemittanceHub.sol",
  "compiler": {
    "name": "solc",
    "version": "0.4.18+commit.9cf6e910.Emscripten.clang"
  },
  "schemaVersion": "1.0.1",
  "updatedAt": "2017-12-26T20:12:17.510Z"
}